{"contracts/WorkExperience.sol":{"WorkExperience":{"abi":[{"anonymous":false,"inputs":[{"indexed":true,"internalType":"address","name":"user","type":"address"},{"indexed":false,"internalType":"string","name":"jobTitle","type":"string"},{"indexed":false,"internalType":"string","name":"companyName","type":"string"},{"indexed":false,"internalType":"address","name":"companyEthAddress","type":"address"},{"indexed":false,"internalType":"string","name":"startDate","type":"string"},{"indexed":false,"internalType":"string","name":"endDate","type":"string"},{"indexed":false,"internalType":"string","name":"description","type":"string"},{"indexed":false,"internalType":"bool","name":"validated","type":"bool"}],"name":"ExperienceAdded","type":"event"},{"anonymous":false,"inputs":[{"indexed":true,"internalType":"address","name":"user","type":"address"},{"indexed":false,"internalType":"uint256","name":"reputationScore","type":"uint256"}],"name":"ReputationAssigned","type":"event"},{"anonymous":false,"inputs":[{"indexed":true,"internalType":"address","name":"user","type":"address"},{"indexed":true,"internalType":"address","name":"companyEthAddress","type":"address"},{"indexed":false,"internalType":"uint256","name":"experienceIndex","type":"uint256"}],"name":"ValidationRequested","type":"event"},{"inputs":[{"internalType":"string","name":"_jobTitle","type":"string"},{"internalType":"string","name":"_companyName","type":"string"},{"internalType":"address","name":"_companyEthAddress","type":"address"},{"internalType":"string","name":"_startDate","type":"string"},{"internalType":"string","name":"_endDate","type":"string"},{"internalType":"string","name":"_description","type":"string"}],"name":"addExperience","outputs":[],"stateMutability":"nonpayable","type":"function"},{"inputs":[],"name":"getAllEmployeeAddresses","outputs":[{"internalType":"address[]","name":"","type":"address[]"}],"stateMutability":"view","type":"function"},{"inputs":[{"internalType":"address","name":"user","type":"address"}],"name":"getExperiences","outputs":[{"components":[{"internalType":"string","name":"jobTitle","type":"string"},{"internalType":"string","name":"companyName","type":"string"},{"internalType":"address","name":"companyEthAddress","type":"address"},{"internalType":"string","name":"startDate","type":"string"},{"internalType":"string","name":"endDate","type":"string"},{"internalType":"string","name":"description","type":"string"},{"internalType":"bool","name":"validated","type":"bool"}],"internalType":"struct WorkExperience.Experience[]","name":"","type":"tuple[]"}],"stateMutability":"view","type":"function"},{"inputs":[{"internalType":"address","name":"user","type":"address"}],"name":"getReputationScore","outputs":[{"internalType":"uint256","name":"","type":"uint256"}],"stateMutability":"view","type":"function"},{"inputs":[{"internalType":"address","name":"user","type":"address"},{"internalType":"uint256","name":"experienceIndex","type":"uint256"}],"name":"validateExperience","outputs":[],"stateMutability":"nonpayable","type":"function"}],"evm":{"bytecode":{"linkReferences":{},"object":"6080604052348015600f57600080fd5b50610f218061001f6000396000f3fe608060405234801561001057600080fd5b50600436106100575760003560e01c80631ed076c41461005c57806329898f6e146100715780632bf3ea3b1461008f57806375a67d5c146100af578063ddf6d3b0146100e6575b600080fd5b61006f61006a366004610945565b6100f9565b005b61007961027e565b604051610086919061096f565b60405180910390f35b6100a261009d3660046109bb565b6102e0565b6040516100869190610a23565b6100d86100bd3660046109bb565b6001600160a01b031660009081526001602052604090205490565b604051908152602001610086565b61006f6100f4366004610bc9565b610656565b6001600160a01b03821660009081526020819052604090205481106101655760405162461bcd60e51b815260206004820152601860248201527f496e76616c696420657870657269656e636520696e646578000000000000000060448201526064015b60405180910390fd5b6001600160a01b038216600090815260208190526040812080548390811061018f5761018f610cc4565b600091825260209091206002600790920201908101549091506001600160a01b031633146102125760405162461bcd60e51b815260206004820152602a60248201527f4e6f7420617574686f72697a656420746f2076616c6964617465207468697320604482015269657870657269656e636560b01b606482015260840161015c565b60068101805460ff1916600117905561022c8360326108f8565b6001600160a01b0383166000818152600160209081526040918290205491519182527f2f82ad6ee5ab999703c50c3d98345b2266486f59dabd716dd3df5a5aa59a7b1a910160405180910390a2505050565b606060028054806020026020016040519081016040528092919081815260200182805480156102d657602002820191906000526020600020905b81546001600160a01b031681526001909101906020018083116102b8575b5050505050905090565b6001600160a01b038116600090815260208181526040808320805482518185028101850190935280835260609492939192909184015b8282101561064b57838290600052602060002090600702016040518060e001604052908160008201805461034990610cda565b80601f016020809104026020016040519081016040528092919081815260200182805461037590610cda565b80156103c25780601f10610397576101008083540402835291602001916103c2565b820191906000526020600020905b8154815290600101906020018083116103a557829003601f168201915b505050505081526020016001820180546103db90610cda565b80601f016020809104026020016040519081016040528092919081815260200182805461040790610cda565b80156104545780601f1061042957610100808354040283529160200191610454565b820191906000526020600020905b81548152906001019060200180831161043757829003601f168201915b505050918352505060028201546001600160a01b0316602082015260038201805460409092019161048490610cda565b80601f01602080910402602001604051908101604052809291908181526020018280546104b090610cda565b80156104fd5780601f106104d2576101008083540402835291602001916104fd565b820191906000526020600020905b8154815290600101906020018083116104e057829003601f168201915b5050505050815260200160048201805461051690610cda565b80601f016020809104026020016040519081016040528092919081815260200182805461054290610cda565b801561058f5780601f106105645761010080835404028352916020019161058f565b820191906000526020600020905b81548152906001019060200180831161057257829003601f168201915b505050505081526020016005820180546105a890610cda565b80601f01602080910402602001604051908101604052809291908181526020018280546105d490610cda565b80156106215780601f106105f657610100808354040283529160200191610621565b820191906000526020600020905b81548152906001019060200180831161060457829003601f168201915b50505091835250506006919091015460ff1615156020918201529082526001929092019101610316565b505050509050919050565b60006040518060e00160405280888152602001878152602001866001600160a01b03168152602001858152602001845160001461069357846106b4565b60405180604001604052806007815260200166141c995cd95b9d60ca1b8152505b815260208082018590526000604092830181905233815280825291822080546001810182559083529120825192935083926007909202019081906106f89082610d63565b506020820151600182019061070d9082610d63565b5060408201516002820180546001600160a01b0319166001600160a01b03909216919091179055606082015160038201906107489082610d63565b506080820151600482019061075d9082610d63565b5060a082015160058201906107729082610d63565b5060c091909101516006909101805460ff1916911515919091179055336000908152602081905260408120546107aa90600190610e38565b90506000805b60025481101561080257336001600160a01b0316600282815481106107d7576107d7610cc4565b6000918252602090912001546001600160a01b0316036107fa5760019150610802565b6001016107b0565b508061084b57600280546001810182556000919091527f405787fa12a823e0f2b7631cc41b3ba8828b3321ca811111fa75cd3aa3bb5ace0180546001600160a01b031916331790555b336001600160a01b03167f8e54abb14c9b6a076d5aa91bf48a6469a22b6559e07b3e97649c14975e6c5d6d8a8a8a8a88608001518a60006040516108959796959493929190610e51565b60405180910390a26001600160a01b038716156108ed576040518281526001600160a01b0388169033907f5ef509c3b87ccfeab5381f6bc70244ba742e81a63982f0b893b1eff8bf61c6cb9060200160405180910390a35b505050505050505050565b6001600160a01b03821660009081526001602052604081208054839290610920908490610ed8565b90915550505050565b80356001600160a01b038116811461094057600080fd5b919050565b6000806040838503121561095857600080fd5b61096183610929565b946020939093013593505050565b602080825282518282018190526000918401906040840190835b818110156109b05783516001600160a01b0316835260209384019390920191600101610989565b509095945050505050565b6000602082840312156109cd57600080fd5b6109d682610929565b9392505050565b6000815180845260005b81811015610a03576020818501810151868301820152016109e7565b506000602082860101526020601f19601f83011685010191505092915050565b6000602082016020835280845180835260408501915060408160051b86010192506020860160005b82811015610b1857603f198786030184528151805160e08752610a7160e08801826109dd565b905060208201518782036020890152610a8a82826109dd565b91505060018060a01b03604083015116604088015260608201518782036060890152610ab682826109dd565b91505060808201518782036080890152610ad082826109dd565b91505060a082015187820360a0890152610aea82826109dd565b91505060c08201519150610b0260c088018315159052565b9550506020938401939190910190600101610a4b565b50929695505050505050565b634e487b7160e01b600052604160045260246000fd5b600082601f830112610b4b57600080fd5b813567ffffffffffffffff811115610b6557610b65610b24565b604051601f8201601f19908116603f0116810167ffffffffffffffff81118282101715610b9457610b94610b24565b604052818152838201602001851015610bac57600080fd5b816020850160208301376000918101602001919091529392505050565b60008060008060008060c08789031215610be257600080fd5b863567ffffffffffffffff811115610bf957600080fd5b610c0589828a01610b3a565b965050602087013567ffffffffffffffff811115610c2257600080fd5b610c2e89828a01610b3a565b955050610c3d60408801610929565b9350606087013567ffffffffffffffff811115610c5957600080fd5b610c6589828a01610b3a565b935050608087013567ffffffffffffffff811115610c8257600080fd5b610c8e89828a01610b3a565b92505060a087013567ffffffffffffffff811115610cab57600080fd5b610cb789828a01610b3a565b9150509295509295509295565b634e487b7160e01b600052603260045260246000fd5b600181811c90821680610cee57607f821691505b602082108103610d0e57634e487b7160e01b600052602260045260246000fd5b50919050565b601f821115610d5e57806000526020600020601f840160051c81016020851015610d3b5750805b601f840160051c820191505b81811015610d5b5760008155600101610d47565b50505b505050565b815167ffffffffffffffff811115610d7d57610d7d610b24565b610d9181610d8b8454610cda565b84610d14565b6020601f821160018114610dc55760008315610dad5750848201515b600019600385901b1c1916600184901b178455610d5b565b600084815260208120601f198516915b82811015610df55787850151825560209485019460019092019101610dd5565b5084821015610e135786840151600019600387901b60f8161c191681555b50505050600190811b01905550565b634e487b7160e01b600052601160045260246000fd5b81810381811115610e4b57610e4b610e22565b92915050565b60e081526000610e6460e083018a6109dd565b8281036020840152610e76818a6109dd565b6001600160a01b038916604085015283810360608501529050610e9981886109dd565b90508281036080840152610ead81876109dd565b905082810360a0840152610ec181866109dd565b91505082151560c083015298975050505050505050565b80820180821115610e4b57610e4b610e2256fea2646970667358221220fb217178d436782b03a2b78c9c2b842ae19e73851f483952693a5ce89b6d862f64736f6c634300081b0033","opcodes":"PUSH1 0x80 PUSH1 0x40 MSTORE CALLVALUE DUP1 ISZERO PUSH1 0xF JUMPI PUSH1 0x0 DUP1 REVERT JUMPDEST POP PUSH2 0xF21 DUP1 PUSH2 0x1F PUSH1 0x0 CODECOPY PUSH1 0x0 RETURN INVALID PUSH1 0x80 PUSH1 0x40 MSTORE CALLVALUE DUP1 ISZERO PUSH2 0x10 JUMPI PUSH1 0x0 DUP1 REVERT JUMPDEST POP PUSH1 0x4 CALLDATASIZE LT PUSH2 0x57 JUMPI PUSH1 0x0 CALLDATALOAD PUSH1 0xE0 SHR DUP1 PUSH4 0x1ED076C4 EQ PUSH2 0x5C JUMPI DUP1 PUSH4 0x29898F6E EQ PUSH2 0x71 JUMPI DUP1 PUSH4 0x2BF3EA3B EQ PUSH2 0x8F JUMPI DUP1 PUSH4 0x75A67D5C EQ PUSH2 0xAF JUMPI DUP1 PUSH4 0xDDF6D3B0 EQ PUSH2 0xE6 JUMPI JUMPDEST PUSH1 0x0 DUP1 REVERT JUMPDEST PUSH2 0x6F PUSH2 0x6A CALLDATASIZE PUSH1 0x4 PUSH2 0x945 JUMP JUMPDEST PUSH2 0xF9 JUMP JUMPDEST STOP JUMPDEST PUSH2 0x79 PUSH2 0x27E JUMP JUMPDEST PUSH1 0x40 MLOAD PUSH2 0x86 SWAP2 SWAP1 PUSH2 0x96F JUMP JUMPDEST PUSH1 0x40 MLOAD DUP1 SWAP2 SUB SWAP1 RETURN JUMPDEST PUSH2 0xA2 PUSH2 0x9D CALLDATASIZE PUSH1 0x4 PUSH2 0x9BB JUMP JUMPDEST PUSH2 0x2E0 JUMP JUMPDEST PUSH1 0x40 MLOAD PUSH2 0x86 SWAP2 SWAP1 PUSH2 0xA23 JUMP JUMPDEST PUSH2 0xD8 PUSH2 0xBD CALLDATASIZE PUSH1 0x4 PUSH2 0x9BB JUMP JUMPDEST PUSH1 0x1 PUSH1 0x1 PUSH1 0xA0 SHL SUB AND PUSH1 0x0 SWAP1 DUP2 MSTORE PUSH1 0x1 PUSH1 0x20 MSTORE PUSH1 0x40 SWAP1 KECCAK256 SLOAD SWAP1 JUMP JUMPDEST PUSH1 0x40 MLOAD SWAP1 DUP2 MSTORE PUSH1 0x20 ADD PUSH2 0x86 JUMP JUMPDEST PUSH2 0x6F PUSH2 0xF4 CALLDATASIZE PUSH1 0x4 PUSH2 0xBC9 JUMP JUMPDEST PUSH2 0x656 JUMP JUMPDEST PUSH1 0x1 PUSH1 0x1 PUSH1 0xA0 SHL SUB DUP3 AND PUSH1 0x0 SWAP1 DUP2 MSTORE PUSH1 0x20 DUP2 SWAP1 MSTORE PUSH1 0x40 SWAP1 KECCAK256 SLOAD DUP2 LT PUSH2 0x165 JUMPI PUSH1 0x40 MLOAD PUSH3 0x461BCD PUSH1 0xE5 SHL DUP2 MSTORE PUSH1 0x20 PUSH1 0x4 DUP3 ADD MSTORE PUSH1 0x18 PUSH1 0x24 DUP3 ADD MSTORE PUSH32 0x496E76616C696420657870657269656E636520696E6465780000000000000000 PUSH1 0x44 DUP3 ADD MSTORE PUSH1 0x64 ADD JUMPDEST PUSH1 0x40 MLOAD DUP1 SWAP2 SUB SWAP1 REVERT JUMPDEST PUSH1 0x1 PUSH1 0x1 PUSH1 0xA0 SHL SUB DUP3 AND PUSH1 0x0 SWAP1 DUP2 MSTORE PUSH1 0x20 DUP2 SWAP1 MSTORE PUSH1 0x40 DUP2 KECCAK256 DUP1 SLOAD DUP4 SWAP1 DUP2 LT PUSH2 0x18F JUMPI PUSH2 0x18F PUSH2 0xCC4 JUMP JUMPDEST PUSH1 0x0 SWAP2 DUP3 MSTORE PUSH1 0x20 SWAP1 SWAP2 KECCAK256 PUSH1 0x2 PUSH1 0x7 SWAP1 SWAP3 MUL ADD SWAP1 DUP2 ADD SLOAD SWAP1 SWAP2 POP PUSH1 0x1 PUSH1 0x1 PUSH1 0xA0 SHL SUB AND CALLER EQ PUSH2 0x212 JUMPI PUSH1 0x40 MLOAD PUSH3 0x461BCD PUSH1 0xE5 SHL DUP2 MSTORE PUSH1 0x20 PUSH1 0x4 DUP3 ADD MSTORE PUSH1 0x2A PUSH1 0x24 DUP3 ADD MSTORE PUSH32 0x4E6F7420617574686F72697A656420746F2076616C6964617465207468697320 PUSH1 0x44 DUP3 ADD MSTORE PUSH10 0x657870657269656E6365 PUSH1 0xB0 SHL PUSH1 0x64 DUP3 ADD MSTORE PUSH1 0x84 ADD PUSH2 0x15C JUMP JUMPDEST PUSH1 0x6 DUP2 ADD DUP1 SLOAD PUSH1 0xFF NOT AND PUSH1 0x1 OR SWAP1 SSTORE PUSH2 0x22C DUP4 PUSH1 0x32 PUSH2 0x8F8 JUMP JUMPDEST PUSH1 0x1 PUSH1 0x1 PUSH1 0xA0 SHL SUB DUP4 AND PUSH1 0x0 DUP2 DUP2 MSTORE PUSH1 0x1 PUSH1 0x20 SWAP1 DUP2 MSTORE PUSH1 0x40 SWAP2 DUP3 SWAP1 KECCAK256 SLOAD SWAP2 MLOAD SWAP2 DUP3 MSTORE PUSH32 0x2F82AD6EE5AB999703C50C3D98345B2266486F59DABD716DD3DF5A5AA59A7B1A SWAP2 ADD PUSH1 0x40 MLOAD DUP1 SWAP2 SUB SWAP1 LOG2 POP POP POP JUMP JUMPDEST PUSH1 0x60 PUSH1 0x2 DUP1 SLOAD DUP1 PUSH1 0x20 MUL PUSH1 0x20 ADD PUSH1 0x40 MLOAD SWAP1 DUP2 ADD PUSH1 0x40 MSTORE DUP1 SWAP3 SWAP2 SWAP1 DUP2 DUP2 MSTORE PUSH1 0x20 ADD DUP3 DUP1 SLOAD DUP1 ISZERO PUSH2 0x2D6 JUMPI PUSH1 0x20 MUL DUP3 ADD SWAP2 SWAP1 PUSH1 0x0 MSTORE PUSH1 0x20 PUSH1 0x0 KECCAK256 SWAP1 JUMPDEST DUP2 SLOAD PUSH1 0x1 PUSH1 0x1 PUSH1 0xA0 SHL SUB AND DUP2 MSTORE PUSH1 0x1 SWAP1 SWAP2 ADD SWAP1 PUSH1 0x20 ADD DUP1 DUP4 GT PUSH2 0x2B8 JUMPI JUMPDEST POP POP POP POP POP SWAP1 POP SWAP1 JUMP JUMPDEST PUSH1 0x1 PUSH1 0x1 PUSH1 0xA0 SHL SUB DUP2 AND PUSH1 0x0 SWAP1 DUP2 MSTORE PUSH1 0x20 DUP2 DUP2 MSTORE PUSH1 0x40 DUP1 DUP4 KECCAK256 DUP1 SLOAD DUP3 MLOAD DUP2 DUP6 MUL DUP2 ADD DUP6 ADD SWAP1 SWAP4 MSTORE DUP1 DUP4 MSTORE PUSH1 0x60 SWAP5 SWAP3 SWAP4 SWAP2 SWAP3 SWAP1 SWAP2 DUP5 ADD JUMPDEST DUP3 DUP3 LT ISZERO PUSH2 0x64B JUMPI DUP4 DUP3 SWAP1 PUSH1 0x0 MSTORE PUSH1 0x20 PUSH1 0x0 KECCAK256 SWAP1 PUSH1 0x7 MUL ADD PUSH1 0x40 MLOAD DUP1 PUSH1 0xE0 ADD PUSH1 0x40 MSTORE SWAP1 DUP2 PUSH1 0x0 DUP3 ADD DUP1 SLOAD PUSH2 0x349 SWAP1 PUSH2 0xCDA JUMP JUMPDEST DUP1 PUSH1 0x1F ADD PUSH1 0x20 DUP1 SWAP2 DIV MUL PUSH1 0x20 ADD PUSH1 0x40 MLOAD SWAP1 DUP2 ADD PUSH1 0x40 MSTORE DUP1 SWAP3 SWAP2 SWAP1 DUP2 DUP2 MSTORE PUSH1 0x20 ADD DUP3 DUP1 SLOAD PUSH2 0x375 SWAP1 PUSH2 0xCDA JUMP JUMPDEST DUP1 ISZERO PUSH2 0x3C2 JUMPI DUP1 PUSH1 0x1F LT PUSH2 0x397 JUMPI PUSH2 0x100 DUP1 DUP4 SLOAD DIV MUL DUP4 MSTORE SWAP2 PUSH1 0x20 ADD SWAP2 PUSH2 0x3C2 JUMP JUMPDEST DUP3 ADD SWAP2 SWAP1 PUSH1 0x0 MSTORE PUSH1 0x20 PUSH1 0x0 KECCAK256 SWAP1 JUMPDEST DUP2 SLOAD DUP2 MSTORE SWAP1 PUSH1 0x1 ADD SWAP1 PUSH1 0x20 ADD DUP1 DUP4 GT PUSH2 0x3A5 JUMPI DUP3 SWAP1 SUB PUSH1 0x1F AND DUP3 ADD SWAP2 JUMPDEST POP POP POP POP POP DUP2 MSTORE PUSH1 0x20 ADD PUSH1 0x1 DUP3 ADD DUP1 SLOAD PUSH2 0x3DB SWAP1 PUSH2 0xCDA JUMP JUMPDEST DUP1 PUSH1 0x1F ADD PUSH1 0x20 DUP1 SWAP2 DIV MUL PUSH1 0x20 ADD PUSH1 0x40 MLOAD SWAP1 DUP2 ADD PUSH1 0x40 MSTORE DUP1 SWAP3 SWAP2 SWAP1 DUP2 DUP2 MSTORE PUSH1 0x20 ADD DUP3 DUP1 SLOAD PUSH2 0x407 SWAP1 PUSH2 0xCDA JUMP JUMPDEST DUP1 ISZERO PUSH2 0x454 JUMPI DUP1 PUSH1 0x1F LT PUSH2 0x429 JUMPI PUSH2 0x100 DUP1 DUP4 SLOAD DIV MUL DUP4 MSTORE SWAP2 PUSH1 0x20 ADD SWAP2 PUSH2 0x454 JUMP JUMPDEST DUP3 ADD SWAP2 SWAP1 PUSH1 0x0 MSTORE PUSH1 0x20 PUSH1 0x0 KECCAK256 SWAP1 JUMPDEST DUP2 SLOAD DUP2 MSTORE SWAP1 PUSH1 0x1 ADD SWAP1 PUSH1 0x20 ADD DUP1 DUP4 GT PUSH2 0x437 JUMPI DUP3 SWAP1 SUB PUSH1 0x1F AND DUP3 ADD SWAP2 JUMPDEST POP POP POP SWAP2 DUP4 MSTORE POP POP PUSH1 0x2 DUP3 ADD SLOAD PUSH1 0x1 PUSH1 0x1 PUSH1 0xA0 SHL SUB AND PUSH1 0x20 DUP3 ADD MSTORE PUSH1 0x3 DUP3 ADD DUP1 SLOAD PUSH1 0x40 SWAP1 SWAP3 ADD SWAP2 PUSH2 0x484 SWAP1 PUSH2 0xCDA JUMP JUMPDEST DUP1 PUSH1 0x1F ADD PUSH1 0x20 DUP1 SWAP2 DIV MUL PUSH1 0x20 ADD PUSH1 0x40 MLOAD SWAP1 DUP2 ADD PUSH1 0x40 MSTORE DUP1 SWAP3 SWAP2 SWAP1 DUP2 DUP2 MSTORE PUSH1 0x20 ADD DUP3 DUP1 SLOAD PUSH2 0x4B0 SWAP1 PUSH2 0xCDA JUMP JUMPDEST DUP1 ISZERO PUSH2 0x4FD JUMPI DUP1 PUSH1 0x1F LT PUSH2 0x4D2 JUMPI PUSH2 0x100 DUP1 DUP4 SLOAD DIV MUL DUP4 MSTORE SWAP2 PUSH1 0x20 ADD SWAP2 PUSH2 0x4FD JUMP JUMPDEST DUP3 ADD SWAP2 SWAP1 PUSH1 0x0 MSTORE PUSH1 0x20 PUSH1 0x0 KECCAK256 SWAP1 JUMPDEST DUP2 SLOAD DUP2 MSTORE SWAP1 PUSH1 0x1 ADD SWAP1 PUSH1 0x20 ADD DUP1 DUP4 GT PUSH2 0x4E0 JUMPI DUP3 SWAP1 SUB PUSH1 0x1F AND DUP3 ADD SWAP2 JUMPDEST POP POP POP POP POP DUP2 MSTORE PUSH1 0x20 ADD PUSH1 0x4 DUP3 ADD DUP1 SLOAD PUSH2 0x516 SWAP1 PUSH2 0xCDA JUMP JUMPDEST DUP1 PUSH1 0x1F ADD PUSH1 0x20 DUP1 SWAP2 DIV MUL PUSH1 0x20 ADD PUSH1 0x40 MLOAD SWAP1 DUP2 ADD PUSH1 0x40 MSTORE DUP1 SWAP3 SWAP2 SWAP1 DUP2 DUP2 MSTORE PUSH1 0x20 ADD DUP3 DUP1 SLOAD PUSH2 0x542 SWAP1 PUSH2 0xCDA JUMP JUMPDEST DUP1 ISZERO PUSH2 0x58F JUMPI DUP1 PUSH1 0x1F LT PUSH2 0x564 JUMPI PUSH2 0x100 DUP1 DUP4 SLOAD DIV MUL DUP4 MSTORE SWAP2 PUSH1 0x20 ADD SWAP2 PUSH2 0x58F JUMP JUMPDEST DUP3 ADD SWAP2 SWAP1 PUSH1 0x0 MSTORE PUSH1 0x20 PUSH1 0x0 KECCAK256 SWAP1 JUMPDEST DUP2 SLOAD DUP2 MSTORE SWAP1 PUSH1 0x1 ADD SWAP1 PUSH1 0x20 ADD DUP1 DUP4 GT PUSH2 0x572 JUMPI DUP3 SWAP1 SUB PUSH1 0x1F AND DUP3 ADD SWAP2 JUMPDEST POP POP POP POP POP DUP2 MSTORE PUSH1 0x20 ADD PUSH1 0x5 DUP3 ADD DUP1 SLOAD PUSH2 0x5A8 SWAP1 PUSH2 0xCDA JUMP JUMPDEST DUP1 PUSH1 0x1F ADD PUSH1 0x20 DUP1 SWAP2 DIV MUL PUSH1 0x20 ADD PUSH1 0x40 MLOAD SWAP1 DUP2 ADD PUSH1 0x40 MSTORE DUP1 SWAP3 SWAP2 SWAP1 DUP2 DUP2 MSTORE PUSH1 0x20 ADD DUP3 DUP1 SLOAD PUSH2 0x5D4 SWAP1 PUSH2 0xCDA JUMP JUMPDEST DUP1 ISZERO PUSH2 0x621 JUMPI DUP1 PUSH1 0x1F LT PUSH2 0x5F6 JUMPI PUSH2 0x100 DUP1 DUP4 SLOAD DIV MUL DUP4 MSTORE SWAP2 PUSH1 0x20 ADD SWAP2 PUSH2 0x621 JUMP JUMPDEST DUP3 ADD SWAP2 SWAP1 PUSH1 0x0 MSTORE PUSH1 0x20 PUSH1 0x0 KECCAK256 SWAP1 JUMPDEST DUP2 SLOAD DUP2 MSTORE SWAP1 PUSH1 0x1 ADD SWAP1 PUSH1 0x20 ADD DUP1 DUP4 GT PUSH2 0x604 JUMPI DUP3 SWAP1 SUB PUSH1 0x1F AND DUP3 ADD SWAP2 JUMPDEST POP POP POP SWAP2 DUP4 MSTORE POP POP PUSH1 0x6 SWAP2 SWAP1 SWAP2 ADD SLOAD PUSH1 0xFF AND ISZERO ISZERO PUSH1 0x20 SWAP2 DUP3 ADD MSTORE SWAP1 DUP3 MSTORE PUSH1 0x1 SWAP3 SWAP1 SWAP3 ADD SWAP2 ADD PUSH2 0x316 JUMP JUMPDEST POP POP POP POP SWAP1 POP SWAP2 SWAP1 POP JUMP JUMPDEST PUSH1 0x0 PUSH1 0x40 MLOAD DUP1 PUSH1 0xE0 ADD PUSH1 0x40 MSTORE DUP1 DUP9 DUP2 MSTORE PUSH1 0x20 ADD DUP8 DUP2 MSTORE PUSH1 0x20 ADD DUP7 PUSH1 0x1 PUSH1 0x1 PUSH1 0xA0 SHL SUB AND DUP2 MSTORE PUSH1 0x20 ADD DUP6 DUP2 MSTORE PUSH1 0x20 ADD DUP5 MLOAD PUSH1 0x0 EQ PUSH2 0x693 JUMPI DUP5 PUSH2 0x6B4 JUMP JUMPDEST PUSH1 0x40 MLOAD DUP1 PUSH1 0x40 ADD PUSH1 0x40 MSTORE DUP1 PUSH1 0x7 DUP2 MSTORE PUSH1 0x20 ADD PUSH7 0x141C995CD95B9D PUSH1 0xCA SHL DUP2 MSTORE POP JUMPDEST DUP2 MSTORE PUSH1 0x20 DUP1 DUP3 ADD DUP6 SWAP1 MSTORE PUSH1 0x0 PUSH1 0x40 SWAP3 DUP4 ADD DUP2 SWAP1 MSTORE CALLER DUP2 MSTORE DUP1 DUP3 MSTORE SWAP2 DUP3 KECCAK256 DUP1 SLOAD PUSH1 0x1 DUP2 ADD DUP3 SSTORE SWAP1 DUP4 MSTORE SWAP2 KECCAK256 DUP3 MLOAD SWAP3 SWAP4 POP DUP4 SWAP3 PUSH1 0x7 SWAP1 SWAP3 MUL ADD SWAP1 DUP2 SWAP1 PUSH2 0x6F8 SWAP1 DUP3 PUSH2 0xD63 JUMP JUMPDEST POP PUSH1 0x20 DUP3 ADD MLOAD PUSH1 0x1 DUP3 ADD SWAP1 PUSH2 0x70D SWAP1 DUP3 PUSH2 0xD63 JUMP JUMPDEST POP PUSH1 0x40 DUP3 ADD MLOAD PUSH1 0x2 DUP3 ADD DUP1 SLOAD PUSH1 0x1 PUSH1 0x1 PUSH1 0xA0 SHL SUB NOT AND PUSH1 0x1 PUSH1 0x1 PUSH1 0xA0 SHL SUB SWAP1 SWAP3 AND SWAP2 SWAP1 SWAP2 OR SWAP1 SSTORE PUSH1 0x60 DUP3 ADD MLOAD PUSH1 0x3 DUP3 ADD SWAP1 PUSH2 0x748 SWAP1 DUP3 PUSH2 0xD63 JUMP JUMPDEST POP PUSH1 0x80 DUP3 ADD MLOAD PUSH1 0x4 DUP3 ADD SWAP1 PUSH2 0x75D SWAP1 DUP3 PUSH2 0xD63 JUMP JUMPDEST POP PUSH1 0xA0 DUP3 ADD MLOAD PUSH1 0x5 DUP3 ADD SWAP1 PUSH2 0x772 SWAP1 DUP3 PUSH2 0xD63 JUMP JUMPDEST POP PUSH1 0xC0 SWAP2 SWAP1 SWAP2 ADD MLOAD PUSH1 0x6 SWAP1 SWAP2 ADD DUP1 SLOAD PUSH1 0xFF NOT AND SWAP2 ISZERO ISZERO SWAP2 SWAP1 SWAP2 OR SWAP1 SSTORE CALLER PUSH1 0x0 SWAP1 DUP2 MSTORE PUSH1 0x20 DUP2 SWAP1 MSTORE PUSH1 0x40 DUP2 KECCAK256 SLOAD PUSH2 0x7AA SWAP1 PUSH1 0x1 SWAP1 PUSH2 0xE38 JUMP JUMPDEST SWAP1 POP PUSH1 0x0 DUP1 JUMPDEST PUSH1 0x2 SLOAD DUP2 LT ISZERO PUSH2 0x802 JUMPI CALLER PUSH1 0x1 PUSH1 0x1 PUSH1 0xA0 SHL SUB AND PUSH1 0x2 DUP3 DUP2 SLOAD DUP2 LT PUSH2 0x7D7 JUMPI PUSH2 0x7D7 PUSH2 0xCC4 JUMP JUMPDEST PUSH1 0x0 SWAP2 DUP3 MSTORE PUSH1 0x20 SWAP1 SWAP2 KECCAK256 ADD SLOAD PUSH1 0x1 PUSH1 0x1 PUSH1 0xA0 SHL SUB AND SUB PUSH2 0x7FA JUMPI PUSH1 0x1 SWAP2 POP PUSH2 0x802 JUMP JUMPDEST PUSH1 0x1 ADD PUSH2 0x7B0 JUMP JUMPDEST POP DUP1 PUSH2 0x84B JUMPI PUSH1 0x2 DUP1 SLOAD PUSH1 0x1 DUP2 ADD DUP3 SSTORE PUSH1 0x0 SWAP2 SWAP1 SWAP2 MSTORE PUSH32 0x405787FA12A823E0F2B7631CC41B3BA8828B3321CA811111FA75CD3AA3BB5ACE ADD DUP1 SLOAD PUSH1 0x1 PUSH1 0x1 PUSH1 0xA0 SHL SUB NOT AND CALLER OR SWAP1 SSTORE JUMPDEST CALLER PUSH1 0x1 PUSH1 0x1 PUSH1 0xA0 SHL SUB AND PUSH32 0x8E54ABB14C9B6A076D5AA91BF48A6469A22B6559E07B3E97649C14975E6C5D6D DUP11 DUP11 DUP11 DUP11 DUP9 PUSH1 0x80 ADD MLOAD DUP11 PUSH1 0x0 PUSH1 0x40 MLOAD PUSH2 0x895 SWAP8 SWAP7 SWAP6 SWAP5 SWAP4 SWAP3 SWAP2 SWAP1 PUSH2 0xE51 JUMP JUMPDEST PUSH1 0x40 MLOAD DUP1 SWAP2 SUB SWAP1 LOG2 PUSH1 0x1 PUSH1 0x1 PUSH1 0xA0 SHL SUB DUP8 AND ISZERO PUSH2 0x8ED JUMPI PUSH1 0x40 MLOAD DUP3 DUP2 MSTORE PUSH1 0x1 PUSH1 0x1 PUSH1 0xA0 SHL SUB DUP9 AND SWAP1 CALLER SWAP1 PUSH32 0x5EF509C3B87CCFEAB5381F6BC70244BA742E81A63982F0B893B1EFF8BF61C6CB SWAP1 PUSH1 0x20 ADD PUSH1 0x40 MLOAD DUP1 SWAP2 SUB SWAP1 LOG3 JUMPDEST POP POP POP POP POP POP POP POP POP JUMP JUMPDEST PUSH1 0x1 PUSH1 0x1 PUSH1 0xA0 SHL SUB DUP3 AND PUSH1 0x0 SWAP1 DUP2 MSTORE PUSH1 0x1 PUSH1 0x20 MSTORE PUSH1 0x40 DUP2 KECCAK256 DUP1 SLOAD DUP4 SWAP3 SWAP1 PUSH2 0x920 SWAP1 DUP5 SWAP1 PUSH2 0xED8 JUMP JUMPDEST SWAP1 SWAP2 SSTORE POP POP POP POP JUMP JUMPDEST DUP1 CALLDATALOAD PUSH1 0x1 PUSH1 0x1 PUSH1 0xA0 SHL SUB DUP2 AND DUP2 EQ PUSH2 0x940 JUMPI PUSH1 0x0 DUP1 REVERT JUMPDEST SWAP2 SWAP1 POP JUMP JUMPDEST PUSH1 0x0 DUP1 PUSH1 0x40 DUP4 DUP6 SUB SLT ISZERO PUSH2 0x958 JUMPI PUSH1 0x0 DUP1 REVERT JUMPDEST PUSH2 0x961 DUP4 PUSH2 0x929 JUMP JUMPDEST SWAP5 PUSH1 0x20 SWAP4 SWAP1 SWAP4 ADD CALLDATALOAD SWAP4 POP POP POP JUMP JUMPDEST PUSH1 0x20 DUP1 DUP3 MSTORE DUP3 MLOAD DUP3 DUP3 ADD DUP2 SWAP1 MSTORE PUSH1 0x0 SWAP2 DUP5 ADD SWAP1 PUSH1 0x40 DUP5 ADD SWAP1 DUP4 JUMPDEST DUP2 DUP2 LT ISZERO PUSH2 0x9B0 JUMPI DUP4 MLOAD PUSH1 0x1 PUSH1 0x1 PUSH1 0xA0 SHL SUB AND DUP4 MSTORE PUSH1 0x20 SWAP4 DUP5 ADD SWAP4 SWAP1 SWAP3 ADD SWAP2 PUSH1 0x1 ADD PUSH2 0x989 JUMP JUMPDEST POP SWAP1 SWAP6 SWAP5 POP POP POP POP POP JUMP JUMPDEST PUSH1 0x0 PUSH1 0x20 DUP3 DUP5 SUB SLT ISZERO PUSH2 0x9CD JUMPI PUSH1 0x0 DUP1 REVERT JUMPDEST PUSH2 0x9D6 DUP3 PUSH2 0x929 JUMP JUMPDEST SWAP4 SWAP3 POP POP POP JUMP JUMPDEST PUSH1 0x0 DUP2 MLOAD DUP1 DUP5 MSTORE PUSH1 0x0 JUMPDEST DUP2 DUP2 LT ISZERO PUSH2 0xA03 JUMPI PUSH1 0x20 DUP2 DUP6 ADD DUP2 ADD MLOAD DUP7 DUP4 ADD DUP3 ADD MSTORE ADD PUSH2 0x9E7 JUMP JUMPDEST POP PUSH1 0x0 PUSH1 0x20 DUP3 DUP7 ADD ADD MSTORE PUSH1 0x20 PUSH1 0x1F NOT PUSH1 0x1F DUP4 ADD AND DUP6 ADD ADD SWAP2 POP POP SWAP3 SWAP2 POP POP JUMP JUMPDEST PUSH1 0x0 PUSH1 0x20 DUP3 ADD PUSH1 0x20 DUP4 MSTORE DUP1 DUP5 MLOAD DUP1 DUP4 MSTORE PUSH1 0x40 DUP6 ADD SWAP2 POP PUSH1 0x40 DUP2 PUSH1 0x5 SHL DUP7 ADD ADD SWAP3 POP PUSH1 0x20 DUP7 ADD PUSH1 0x0 JUMPDEST DUP3 DUP2 LT ISZERO PUSH2 0xB18 JUMPI PUSH1 0x3F NOT DUP8 DUP7 SUB ADD DUP5 MSTORE DUP2 MLOAD DUP1 MLOAD PUSH1 0xE0 DUP8 MSTORE PUSH2 0xA71 PUSH1 0xE0 DUP9 ADD DUP3 PUSH2 0x9DD JUMP JUMPDEST SWAP1 POP PUSH1 0x20 DUP3 ADD MLOAD DUP8 DUP3 SUB PUSH1 0x20 DUP10 ADD MSTORE PUSH2 0xA8A DUP3 DUP3 PUSH2 0x9DD JUMP JUMPDEST SWAP2 POP POP PUSH1 0x1 DUP1 PUSH1 0xA0 SHL SUB PUSH1 0x40 DUP4 ADD MLOAD AND PUSH1 0x40 DUP9 ADD MSTORE PUSH1 0x60 DUP3 ADD MLOAD DUP8 DUP3 SUB PUSH1 0x60 DUP10 ADD MSTORE PUSH2 0xAB6 DUP3 DUP3 PUSH2 0x9DD JUMP JUMPDEST SWAP2 POP POP PUSH1 0x80 DUP3 ADD MLOAD DUP8 DUP3 SUB PUSH1 0x80 DUP10 ADD MSTORE PUSH2 0xAD0 DUP3 DUP3 PUSH2 0x9DD JUMP JUMPDEST SWAP2 POP POP PUSH1 0xA0 DUP3 ADD MLOAD DUP8 DUP3 SUB PUSH1 0xA0 DUP10 ADD MSTORE PUSH2 0xAEA DUP3 DUP3 PUSH2 0x9DD JUMP JUMPDEST SWAP2 POP POP PUSH1 0xC0 DUP3 ADD MLOAD SWAP2 POP PUSH2 0xB02 PUSH1 0xC0 DUP9 ADD DUP4 ISZERO ISZERO SWAP1 MSTORE JUMP JUMPDEST SWAP6 POP POP PUSH1 0x20 SWAP4 DUP5 ADD SWAP4 SWAP2 SWAP1 SWAP2 ADD SWAP1 PUSH1 0x1 ADD PUSH2 0xA4B JUMP JUMPDEST POP SWAP3 SWAP7 SWAP6 POP POP POP POP POP POP JUMP JUMPDEST PUSH4 0x4E487B71 PUSH1 0xE0 SHL PUSH1 0x0 MSTORE PUSH1 0x41 PUSH1 0x4 MSTORE PUSH1 0x24 PUSH1 0x0 REVERT JUMPDEST PUSH1 0x0 DUP3 PUSH1 0x1F DUP4 ADD SLT PUSH2 0xB4B JUMPI PUSH1 0x0 DUP1 REVERT JUMPDEST DUP2 CALLDATALOAD PUSH8 0xFFFFFFFFFFFFFFFF DUP2 GT ISZERO PUSH2 0xB65 JUMPI PUSH2 0xB65 PUSH2 0xB24 JUMP JUMPDEST PUSH1 0x40 MLOAD PUSH1 0x1F DUP3 ADD PUSH1 0x1F NOT SWAP1 DUP2 AND PUSH1 0x3F ADD AND DUP2 ADD PUSH8 0xFFFFFFFFFFFFFFFF DUP2 GT DUP3 DUP3 LT OR ISZERO PUSH2 0xB94 JUMPI PUSH2 0xB94 PUSH2 0xB24 JUMP JUMPDEST PUSH1 0x40 MSTORE DUP2 DUP2 MSTORE DUP4 DUP3 ADD PUSH1 0x20 ADD DUP6 LT ISZERO PUSH2 0xBAC JUMPI PUSH1 0x0 DUP1 REVERT JUMPDEST DUP2 PUSH1 0x20 DUP6 ADD PUSH1 0x20 DUP4 ADD CALLDATACOPY PUSH1 0x0 SWAP2 DUP2 ADD PUSH1 0x20 ADD SWAP2 SWAP1 SWAP2 MSTORE SWAP4 SWAP3 POP POP POP JUMP JUMPDEST PUSH1 0x0 DUP1 PUSH1 0x0 DUP1 PUSH1 0x0 DUP1 PUSH1 0xC0 DUP8 DUP10 SUB SLT ISZERO PUSH2 0xBE2 JUMPI PUSH1 0x0 DUP1 REVERT JUMPDEST DUP7 CALLDATALOAD PUSH8 0xFFFFFFFFFFFFFFFF DUP2 GT ISZERO PUSH2 0xBF9 JUMPI PUSH1 0x0 DUP1 REVERT JUMPDEST PUSH2 0xC05 DUP10 DUP3 DUP11 ADD PUSH2 0xB3A JUMP JUMPDEST SWAP7 POP POP PUSH1 0x20 DUP8 ADD CALLDATALOAD PUSH8 0xFFFFFFFFFFFFFFFF DUP2 GT ISZERO PUSH2 0xC22 JUMPI PUSH1 0x0 DUP1 REVERT JUMPDEST PUSH2 0xC2E DUP10 DUP3 DUP11 ADD PUSH2 0xB3A JUMP JUMPDEST SWAP6 POP POP PUSH2 0xC3D PUSH1 0x40 DUP9 ADD PUSH2 0x929 JUMP JUMPDEST SWAP4 POP PUSH1 0x60 DUP8 ADD CALLDATALOAD PUSH8 0xFFFFFFFFFFFFFFFF DUP2 GT ISZERO PUSH2 0xC59 JUMPI PUSH1 0x0 DUP1 REVERT JUMPDEST PUSH2 0xC65 DUP10 DUP3 DUP11 ADD PUSH2 0xB3A JUMP JUMPDEST SWAP4 POP POP PUSH1 0x80 DUP8 ADD CALLDATALOAD PUSH8 0xFFFFFFFFFFFFFFFF DUP2 GT ISZERO PUSH2 0xC82 JUMPI PUSH1 0x0 DUP1 REVERT JUMPDEST PUSH2 0xC8E DUP10 DUP3 DUP11 ADD PUSH2 0xB3A JUMP JUMPDEST SWAP3 POP POP PUSH1 0xA0 DUP8 ADD CALLDATALOAD PUSH8 0xFFFFFFFFFFFFFFFF DUP2 GT ISZERO PUSH2 0xCAB JUMPI PUSH1 0x0 DUP1 REVERT JUMPDEST PUSH2 0xCB7 DUP10 DUP3 DUP11 ADD PUSH2 0xB3A JUMP JUMPDEST SWAP2 POP POP SWAP3 SWAP6 POP SWAP3 SWAP6 POP SWAP3 SWAP6 JUMP JUMPDEST PUSH4 0x4E487B71 PUSH1 0xE0 SHL PUSH1 0x0 MSTORE PUSH1 0x32 PUSH1 0x4 MSTORE PUSH1 0x24 PUSH1 0x0 REVERT JUMPDEST PUSH1 0x1 DUP2 DUP2 SHR SWAP1 DUP3 AND DUP1 PUSH2 0xCEE JUMPI PUSH1 0x7F DUP3 AND SWAP2 POP JUMPDEST PUSH1 0x20 DUP3 LT DUP2 SUB PUSH2 0xD0E JUMPI PUSH4 0x4E487B71 PUSH1 0xE0 SHL PUSH1 0x0 MSTORE PUSH1 0x22 PUSH1 0x4 MSTORE PUSH1 0x24 PUSH1 0x0 REVERT JUMPDEST POP SWAP2 SWAP1 POP JUMP JUMPDEST PUSH1 0x1F DUP3 GT ISZERO PUSH2 0xD5E JUMPI DUP1 PUSH1 0x0 MSTORE PUSH1 0x20 PUSH1 0x0 KECCAK256 PUSH1 0x1F DUP5 ADD PUSH1 0x5 SHR DUP2 ADD PUSH1 0x20 DUP6 LT ISZERO PUSH2 0xD3B JUMPI POP DUP1 JUMPDEST PUSH1 0x1F DUP5 ADD PUSH1 0x5 SHR DUP3 ADD SWAP2 POP JUMPDEST DUP2 DUP2 LT ISZERO PUSH2 0xD5B JUMPI PUSH1 0x0 DUP2 SSTORE PUSH1 0x1 ADD PUSH2 0xD47 JUMP JUMPDEST POP POP JUMPDEST POP POP POP JUMP JUMPDEST DUP2 MLOAD PUSH8 0xFFFFFFFFFFFFFFFF DUP2 GT ISZERO PUSH2 0xD7D JUMPI PUSH2 0xD7D PUSH2 0xB24 JUMP JUMPDEST PUSH2 0xD91 DUP2 PUSH2 0xD8B DUP5 SLOAD PUSH2 0xCDA JUMP JUMPDEST DUP5 PUSH2 0xD14 JUMP JUMPDEST PUSH1 0x20 PUSH1 0x1F DUP3 GT PUSH1 0x1 DUP2 EQ PUSH2 0xDC5 JUMPI PUSH1 0x0 DUP4 ISZERO PUSH2 0xDAD JUMPI POP DUP5 DUP3 ADD MLOAD JUMPDEST PUSH1 0x0 NOT PUSH1 0x3 DUP6 SWAP1 SHL SHR NOT AND PUSH1 0x1 DUP5 SWAP1 SHL OR DUP5 SSTORE PUSH2 0xD5B JUMP JUMPDEST PUSH1 0x0 DUP5 DUP2 MSTORE PUSH1 0x20 DUP2 KECCAK256 PUSH1 0x1F NOT DUP6 AND SWAP2 JUMPDEST DUP3 DUP2 LT ISZERO PUSH2 0xDF5 JUMPI DUP8 DUP6 ADD MLOAD DUP3 SSTORE PUSH1 0x20 SWAP5 DUP6 ADD SWAP5 PUSH1 0x1 SWAP1 SWAP3 ADD SWAP2 ADD PUSH2 0xDD5 JUMP JUMPDEST POP DUP5 DUP3 LT ISZERO PUSH2 0xE13 JUMPI DUP7 DUP5 ADD MLOAD PUSH1 0x0 NOT PUSH1 0x3 DUP8 SWAP1 SHL PUSH1 0xF8 AND SHR NOT AND DUP2 SSTORE JUMPDEST POP POP POP POP PUSH1 0x1 SWAP1 DUP2 SHL ADD SWAP1 SSTORE POP JUMP JUMPDEST PUSH4 0x4E487B71 PUSH1 0xE0 SHL PUSH1 0x0 MSTORE PUSH1 0x11 PUSH1 0x4 MSTORE PUSH1 0x24 PUSH1 0x0 REVERT JUMPDEST DUP2 DUP2 SUB DUP2 DUP2 GT ISZERO PUSH2 0xE4B JUMPI PUSH2 0xE4B PUSH2 0xE22 JUMP JUMPDEST SWAP3 SWAP2 POP POP JUMP JUMPDEST PUSH1 0xE0 DUP2 MSTORE PUSH1 0x0 PUSH2 0xE64 PUSH1 0xE0 DUP4 ADD DUP11 PUSH2 0x9DD JUMP JUMPDEST DUP3 DUP2 SUB PUSH1 0x20 DUP5 ADD MSTORE PUSH2 0xE76 DUP2 DUP11 PUSH2 0x9DD JUMP JUMPDEST PUSH1 0x1 PUSH1 0x1 PUSH1 0xA0 SHL SUB DUP10 AND PUSH1 0x40 DUP6 ADD MSTORE DUP4 DUP2 SUB PUSH1 0x60 DUP6 ADD MSTORE SWAP1 POP PUSH2 0xE99 DUP2 DUP9 PUSH2 0x9DD JUMP JUMPDEST SWAP1 POP DUP3 DUP2 SUB PUSH1 0x80 DUP5 ADD MSTORE PUSH2 0xEAD DUP2 DUP8 PUSH2 0x9DD JUMP JUMPDEST SWAP1 POP DUP3 DUP2 SUB PUSH1 0xA0 DUP5 ADD MSTORE PUSH2 0xEC1 DUP2 DUP7 PUSH2 0x9DD JUMP JUMPDEST SWAP2 POP POP DUP3 ISZERO ISZERO PUSH1 0xC0 DUP4 ADD MSTORE SWAP9 SWAP8 POP POP POP POP POP POP POP POP JUMP JUMPDEST DUP1 DUP3 ADD DUP1 DUP3 GT ISZERO PUSH2 0xE4B JUMPI PUSH2 0xE4B PUSH2 0xE22 JUMP INVALID LOG2 PUSH5 0x6970667358 0x22 SLT KECCAK256 0xFB 0x21 PUSH18 0x78D436782B03A2B78C9C2B842AE19E73851F BASEFEE CODECOPY MSTORE PUSH10 0x3A5CE89B6D862F64736F PUSH13 0x634300081B0033000000000000 "},"methodIdentifiers":{"addExperience(string,string,address,string,string,string)":"ddf6d3b0","getAllEmployeeAddresses()":"29898f6e","getExperiences(address)":"2bf3ea3b","getReputationScore(address)":"75a67d5c","validateExperience(address,uint256)":"1ed076c4"}}}}}