{
  "_format": "hh-sol-artifact-1",
  "contractName": "WorkExperience",
  "sourceName": "contracts/WorkExperience.sol",
  "abi": [
    {
      "anonymous": false,
      "inputs": [
        {
          "indexed": true,
          "internalType": "address",
          "name": "user",
          "type": "address"
        },
        {
          "indexed": false,
          "internalType": "string",
          "name": "jobTitle",
          "type": "string"
        },
        {
          "indexed": false,
          "internalType": "string",
          "name": "companyName",
          "type": "string"
        },
        {
          "indexed": false,
          "internalType": "address",
          "name": "companyEthAddress",
          "type": "address"
        },
        {
          "indexed": false,
          "internalType": "string",
          "name": "startDate",
          "type": "string"
        },
        {
          "indexed": false,
          "internalType": "string",
          "name": "endDate",
          "type": "string"
        },
        {
          "indexed": false,
          "internalType": "string",
          "name": "description",
          "type": "string"
        },
        {
          "indexed": false,
          "internalType": "bool",
          "name": "validated",
          "type": "bool"
        }
      ],
      "name": "ExperienceAdded",
      "type": "event"
    },
    {
      "anonymous": false,
      "inputs": [
        {
          "indexed": true,
          "internalType": "address",
          "name": "user",
          "type": "address"
        },
        {
          "indexed": false,
          "internalType": "uint256",
          "name": "reputationScore",
          "type": "uint256"
        }
      ],
      "name": "ReputationAssigned",
      "type": "event"
    },
    {
      "anonymous": false,
      "inputs": [
        {
          "indexed": true,
          "internalType": "address",
          "name": "user",
          "type": "address"
        },
        {
          "indexed": true,
          "internalType": "address",
          "name": "companyEthAddress",
          "type": "address"
        },
        {
          "indexed": false,
          "internalType": "uint256",
          "name": "experienceIndex",
          "type": "uint256"
        }
      ],
      "name": "ValidationRequested",
      "type": "event"
    },
    {
      "inputs": [
        {
          "internalType": "string",
          "name": "_jobTitle",
          "type": "string"
        },
        {
          "internalType": "string",
          "name": "_companyName",
          "type": "string"
        },
        {
          "internalType": "address",
          "name": "_companyEthAddress",
          "type": "address"
        },
        {
          "internalType": "string",
          "name": "_startDate",
          "type": "string"
        },
        {
          "internalType": "string",
          "name": "_endDate",
          "type": "string"
        },
        {
          "internalType": "string",
          "name": "_description",
          "type": "string"
        }
      ],
      "name": "addExperience",
      "outputs": [],
      "stateMutability": "nonpayable",
      "type": "function"
    },
    {
      "inputs": [],
      "name": "getAllEmployeeAddresses",
      "outputs": [
        {
          "internalType": "address[]",
          "name": "",
          "type": "address[]"
        }
      ],
      "stateMutability": "view",
      "type": "function"
    },
    {
      "inputs": [
        {
          "internalType": "address",
          "name": "user",
          "type": "address"
        }
      ],
      "name": "getExperiences",
      "outputs": [
        {
          "components": [
            {
              "internalType": "string",
              "name": "jobTitle",
              "type": "string"
            },
            {
              "internalType": "string",
              "name": "companyName",
              "type": "string"
            },
            {
              "internalType": "address",
              "name": "companyEthAddress",
              "type": "address"
            },
            {
              "internalType": "string",
              "name": "startDate",
              "type": "string"
            },
            {
              "internalType": "string",
              "name": "endDate",
              "type": "string"
            },
            {
              "internalType": "string",
              "name": "description",
              "type": "string"
            },
            {
              "internalType": "bool",
              "name": "validated",
              "type": "bool"
            }
          ],
          "internalType": "struct WorkExperience.Experience[]",
          "name": "",
          "type": "tuple[]"
        }
      ],
      "stateMutability": "view",
      "type": "function"
    },
    {
      "inputs": [
        {
          "internalType": "address",
          "name": "user",
          "type": "address"
        }
      ],
      "name": "getReputationScore",
      "outputs": [
        {
          "internalType": "uint256",
          "name": "",
          "type": "uint256"
        }
      ],
      "stateMutability": "view",
      "type": "function"
    },
    {
      "inputs": [
        {
          "internalType": "address",
          "name": "user",
          "type": "address"
        },
        {
          "internalType": "uint256",
          "name": "experienceIndex",
          "type": "uint256"
        }
      ],
      "name": "validateExperience",
      "outputs": [],
      "stateMutability": "nonpayable",
      "type": "function"
    }
  ],
  "bytecode": "0x6080604052348015600f57600080fd5b50610f218061001f6000396000f3fe608060405234801561001057600080fd5b50600436106100575760003560e01c80631ed076c41461005c57806329898f6e146100715780632bf3ea3b1461008f57806375a67d5c146100af578063ddf6d3b0146100e6575b600080fd5b61006f61006a366004610945565b6100f9565b005b61007961027e565b604051610086919061096f565b60405180910390f35b6100a261009d3660046109bb565b6102e0565b6040516100869190610a23565b6100d86100bd3660046109bb565b6001600160a01b031660009081526001602052604090205490565b604051908152602001610086565b61006f6100f4366004610bc9565b610656565b6001600160a01b03821660009081526020819052604090205481106101655760405162461bcd60e51b815260206004820152601860248201527f496e76616c696420657870657269656e636520696e646578000000000000000060448201526064015b60405180910390fd5b6001600160a01b038216600090815260208190526040812080548390811061018f5761018f610cc4565b600091825260209091206002600790920201908101549091506001600160a01b031633146102125760405162461bcd60e51b815260206004820152602a60248201527f4e6f7420617574686f72697a656420746f2076616c6964617465207468697320604482015269657870657269656e636560b01b606482015260840161015c565b60068101805460ff1916600117905561022c8360326108f8565b6001600160a01b0383166000818152600160209081526040918290205491519182527f2f82ad6ee5ab999703c50c3d98345b2266486f59dabd716dd3df5a5aa59a7b1a910160405180910390a2505050565b606060028054806020026020016040519081016040528092919081815260200182805480156102d657602002820191906000526020600020905b81546001600160a01b031681526001909101906020018083116102b8575b5050505050905090565b6001600160a01b038116600090815260208181526040808320805482518185028101850190935280835260609492939192909184015b8282101561064b57838290600052602060002090600702016040518060e001604052908160008201805461034990610cda565b80601f016020809104026020016040519081016040528092919081815260200182805461037590610cda565b80156103c25780601f10610397576101008083540402835291602001916103c2565b820191906000526020600020905b8154815290600101906020018083116103a557829003601f168201915b505050505081526020016001820180546103db90610cda565b80601f016020809104026020016040519081016040528092919081815260200182805461040790610cda565b80156104545780601f1061042957610100808354040283529160200191610454565b820191906000526020600020905b81548152906001019060200180831161043757829003601f168201915b505050918352505060028201546001600160a01b0316602082015260038201805460409092019161048490610cda565b80601f01602080910402602001604051908101604052809291908181526020018280546104b090610cda565b80156104fd5780601f106104d2576101008083540402835291602001916104fd565b820191906000526020600020905b8154815290600101906020018083116104e057829003601f168201915b5050505050815260200160048201805461051690610cda565b80601f016020809104026020016040519081016040528092919081815260200182805461054290610cda565b801561058f5780601f106105645761010080835404028352916020019161058f565b820191906000526020600020905b81548152906001019060200180831161057257829003601f168201915b505050505081526020016005820180546105a890610cda565b80601f01602080910402602001604051908101604052809291908181526020018280546105d490610cda565b80156106215780601f106105f657610100808354040283529160200191610621565b820191906000526020600020905b81548152906001019060200180831161060457829003601f168201915b50505091835250506006919091015460ff1615156020918201529082526001929092019101610316565b505050509050919050565b60006040518060e00160405280888152602001878152602001866001600160a01b03168152602001858152602001845160001461069357846106b4565b60405180604001604052806007815260200166141c995cd95b9d60ca1b8152505b815260208082018590526000604092830181905233815280825291822080546001810182559083529120825192935083926007909202019081906106f89082610d63565b506020820151600182019061070d9082610d63565b5060408201516002820180546001600160a01b0319166001600160a01b03909216919091179055606082015160038201906107489082610d63565b506080820151600482019061075d9082610d63565b5060a082015160058201906107729082610d63565b5060c091909101516006909101805460ff1916911515919091179055336000908152602081905260408120546107aa90600190610e38565b90506000805b60025481101561080257336001600160a01b0316600282815481106107d7576107d7610cc4565b6000918252602090912001546001600160a01b0316036107fa5760019150610802565b6001016107b0565b508061084b57600280546001810182556000919091527f405787fa12a823e0f2b7631cc41b3ba8828b3321ca811111fa75cd3aa3bb5ace0180546001600160a01b031916331790555b336001600160a01b03167f8e54abb14c9b6a076d5aa91bf48a6469a22b6559e07b3e97649c14975e6c5d6d8a8a8a8a88608001518a60006040516108959796959493929190610e51565b60405180910390a26001600160a01b038716156108ed576040518281526001600160a01b0388169033907f5ef509c3b87ccfeab5381f6bc70244ba742e81a63982f0b893b1eff8bf61c6cb9060200160405180910390a35b505050505050505050565b6001600160a01b03821660009081526001602052604081208054839290610920908490610ed8565b90915550505050565b80356001600160a01b038116811461094057600080fd5b919050565b6000806040838503121561095857600080fd5b61096183610929565b946020939093013593505050565b602080825282518282018190526000918401906040840190835b818110156109b05783516001600160a01b0316835260209384019390920191600101610989565b509095945050505050565b6000602082840312156109cd57600080fd5b6109d682610929565b9392505050565b6000815180845260005b81811015610a03576020818501810151868301820152016109e7565b506000602082860101526020601f19601f83011685010191505092915050565b6000602082016020835280845180835260408501915060408160051b86010192506020860160005b82811015610b1857603f198786030184528151805160e08752610a7160e08801826109dd565b905060208201518782036020890152610a8a82826109dd565b91505060018060a01b03604083015116604088015260608201518782036060890152610ab682826109dd565b91505060808201518782036080890152610ad082826109dd565b91505060a082015187820360a0890152610aea82826109dd565b91505060c08201519150610b0260c088018315159052565b9550506020938401939190910190600101610a4b565b50929695505050505050565b634e487b7160e01b600052604160045260246000fd5b600082601f830112610b4b57600080fd5b813567ffffffffffffffff811115610b6557610b65610b24565b604051601f8201601f19908116603f0116810167ffffffffffffffff81118282101715610b9457610b94610b24565b604052818152838201602001851015610bac57600080fd5b816020850160208301376000918101602001919091529392505050565b60008060008060008060c08789031215610be257600080fd5b863567ffffffffffffffff811115610bf957600080fd5b610c0589828a01610b3a565b965050602087013567ffffffffffffffff811115610c2257600080fd5b610c2e89828a01610b3a565b955050610c3d60408801610929565b9350606087013567ffffffffffffffff811115610c5957600080fd5b610c6589828a01610b3a565b935050608087013567ffffffffffffffff811115610c8257600080fd5b610c8e89828a01610b3a565b92505060a087013567ffffffffffffffff811115610cab57600080fd5b610cb789828a01610b3a565b9150509295509295509295565b634e487b7160e01b600052603260045260246000fd5b600181811c90821680610cee57607f821691505b602082108103610d0e57634e487b7160e01b600052602260045260246000fd5b50919050565b601f821115610d5e57806000526020600020601f840160051c81016020851015610d3b5750805b601f840160051c820191505b81811015610d5b5760008155600101610d47565b50505b505050565b815167ffffffffffffffff811115610d7d57610d7d610b24565b610d9181610d8b8454610cda565b84610d14565b6020601f821160018114610dc55760008315610dad5750848201515b600019600385901b1c1916600184901b178455610d5b565b600084815260208120601f198516915b82811015610df55787850151825560209485019460019092019101610dd5565b5084821015610e135786840151600019600387901b60f8161c191681555b50505050600190811b01905550565b634e487b7160e01b600052601160045260246000fd5b81810381811115610e4b57610e4b610e22565b92915050565b60e081526000610e6460e083018a6109dd565b8281036020840152610e76818a6109dd565b6001600160a01b038916604085015283810360608501529050610e9981886109dd565b90508281036080840152610ead81876109dd565b905082810360a0840152610ec181866109dd565b91505082151560c083015298975050505050505050565b80820180821115610e4b57610e4b610e2256fea2646970667358221220fb217178d436782b03a2b78c9c2b842ae19e73851f483952693a5ce89b6d862f64736f6c634300081b0033",
  "linkReferences": {},
  "deployedLinkReferences": {}
}