{
  "_format": "hh-sol-artifact-1",
  "contractName": "OrgProfile",
  "sourceName": "contracts/OrgProfile.sol",
  "abi": [
    {
      "inputs": [],
      "name": "getAllOrganizations",
      "outputs": [
        {
          "internalType": "address[]",
          "name": "",
          "type": "address[]"
        }
      ],
      "stateMutability": "view",
      "type": "function"
    },
    {
      "inputs": [
        {
          "internalType": "address",
          "name": "orgAddress",
          "type": "address"
        }
      ],
      "name": "getProfile",
      "outputs": [
        {
          "internalType": "string",
          "name": "",
          "type": "string"
        },
        {
          "internalType": "string",
          "name": "",
          "type": "string"
        },
        {
          "internalType": "string",
          "name": "",
          "type": "string"
        },
        {
          "internalType": "string",
          "name": "",
          "type": "string"
        },
        {
          "internalType": "string",
          "name": "",
          "type": "string"
        }
      ],
      "stateMutability": "view",
      "type": "function"
    },
    {
      "inputs": [
        {
          "internalType": "string",
          "name": "_companyName",
          "type": "string"
        },
        {
          "internalType": "string",
          "name": "_companyEthAddress",
          "type": "string"
        },
        {
          "internalType": "string",
          "name": "_emailAddress",
          "type": "string"
        },
        {
          "internalType": "string",
          "name": "_websiteURL",
          "type": "string"
        },
        {
          "internalType": "string",
          "name": "_slogan",
          "type": "string"
        }
      ],
      "name": "setProfile",
      "outputs": [],
      "stateMutability": "nonpayable",
      "type": "function"
    }
  ],
  "bytecode": "0x6080604052348015600f57600080fd5b5061095f8061001f6000396000f3fe608060405234801561001057600080fd5b50600436106100415760003560e01c8063086ed938146100465780630f53a47014610064578063614cffab14610088575b600080fd5b61004e61009d565b60405161005b9190610521565b60405180910390f35b61007761007236600461056d565b6100ff565b60405161005b9594939291906105e3565b61009b6100963660046106f5565b61043d565b005b606060018054806020026020016040519081016040528092919081815260200182805480156100f557602002820191906000526020600020905b81546001600160a01b031681526001909101906020018083116100d7575b5050505050905090565b60608060608060606000806000886001600160a01b03166001600160a01b031681526020019081526020016000206040518060a0016040529081600082018054610148906107e1565b80601f0160208091040260200160405190810160405280929190818152602001828054610174906107e1565b80156101c15780601f10610196576101008083540402835291602001916101c1565b820191906000526020600020905b8154815290600101906020018083116101a457829003601f168201915b505050505081526020016001820180546101da906107e1565b80601f0160208091040260200160405190810160405280929190818152602001828054610206906107e1565b80156102535780601f1061022857610100808354040283529160200191610253565b820191906000526020600020905b81548152906001019060200180831161023657829003601f168201915b5050505050815260200160028201805461026c906107e1565b80601f0160208091040260200160405190810160405280929190818152602001828054610298906107e1565b80156102e55780601f106102ba576101008083540402835291602001916102e5565b820191906000526020600020905b8154815290600101906020018083116102c857829003601f168201915b505050505081526020016003820180546102fe906107e1565b80601f016020809104026020016040519081016040528092919081815260200182805461032a906107e1565b80156103775780601f1061034c57610100808354040283529160200191610377565b820191906000526020600020905b81548152906001019060200180831161035a57829003601f168201915b50505050508152602001600482018054610390906107e1565b80601f01602080910402602001604051908101604052809291908181526020018280546103bc906107e1565b80156104095780601f106103de57610100808354040283529160200191610409565b820191906000526020600020905b8154815290600101906020018083116103ec57829003601f168201915b5050509190925250508151602083015160408401516060850151608090950151929c919b5099509297509550909350505050565b6040805160a08101825286815260208082018790528183018690526060820185905260808201849052336000908152908190529190912081518190610482908261086a565b5060208201516001820190610497908261086a565b50604082015160028201906104ac908261086a565b50606082015160038201906104c1908261086a565b50608082015160048201906104d6908261086a565b50506001805480820182556000919091527fb10e2d527612073b26eecdfd717e6a320cf44b4afac2b0732d9fcbe2b7fa0cf60180546001600160a01b03191633179055505050505050565b602080825282518282018190526000918401906040840190835b818110156105625783516001600160a01b031683526020938401939092019160010161053b565b509095945050505050565b60006020828403121561057f57600080fd5b81356001600160a01b038116811461059657600080fd5b9392505050565b6000815180845260005b818110156105c3576020818501810151868301820152016105a7565b506000602082860101526020601f19601f83011685010191505092915050565b60a0815260006105f660a083018861059d565b8281036020840152610608818861059d565b9050828103604084015261061c818761059d565b90508281036060840152610630818661059d565b90508281036080840152610644818561059d565b98975050505050505050565b634e487b7160e01b600052604160045260246000fd5b600082601f83011261067757600080fd5b813567ffffffffffffffff81111561069157610691610650565b604051601f8201601f19908116603f0116810167ffffffffffffffff811182821017156106c0576106c0610650565b6040528181528382016020018510156106d857600080fd5b816020850160208301376000918101602001919091529392505050565b600080600080600060a0868803121561070d57600080fd5b853567ffffffffffffffff81111561072457600080fd5b61073088828901610666565b955050602086013567ffffffffffffffff81111561074d57600080fd5b61075988828901610666565b945050604086013567ffffffffffffffff81111561077657600080fd5b61078288828901610666565b935050606086013567ffffffffffffffff81111561079f57600080fd5b6107ab88828901610666565b925050608086013567ffffffffffffffff8111156107c857600080fd5b6107d488828901610666565b9150509295509295909350565b600181811c908216806107f557607f821691505b60208210810361081557634e487b7160e01b600052602260045260246000fd5b50919050565b601f82111561086557806000526020600020601f840160051c810160208510156108425750805b601f840160051c820191505b81811015610862576000815560010161084e565b50505b505050565b815167ffffffffffffffff81111561088457610884610650565b6108988161089284546107e1565b8461081b565b6020601f8211600181146108cc57600083156108b45750848201515b600019600385901b1c1916600184901b178455610862565b600084815260208120601f198516915b828110156108fc57878501518255602094850194600190920191016108dc565b508482101561091a5786840151600019600387901b60f8161c191681555b50505050600190811b0190555056fea26469706673582212205b327624a595f7d45b46836579a8edc8284dd20b223251e61673f1974d40f27564736f6c634300081b0033",
  "linkReferences": {},
  "deployedLinkReferences": {}
}