{
  "_format": "hh-sol-artifact-1",
  "contractName": "Certification",
  "sourceName": "contracts/Certification.sol",
  "abi": [
    {
      "inputs": [],
      "stateMutability": "nonpayable",
      "type": "constructor"
    },
    {
      "inputs": [],
      "name": "admin",
      "outputs": [
        {
          "internalType": "address",
          "name": "",
          "type": "address"
        }
      ],
      "stateMutability": "view",
      "type": "function"
    },
    {
      "inputs": [
        {
          "internalType": "string",
          "name": "",
          "type": "string"
        }
      ],
      "name": "certificateScores",
      "outputs": [
        {
          "internalType": "uint256",
          "name": "",
          "type": "uint256"
        }
      ],
      "stateMutability": "view",
      "type": "function"
    },
    {
      "inputs": [
        {
          "internalType": "uint256",
          "name": "",
          "type": "uint256"
        }
      ],
      "name": "employeeAddresses",
      "outputs": [
        {
          "internalType": "address",
          "name": "",
          "type": "address"
        }
      ],
      "stateMutability": "view",
      "type": "function"
    },
    {
      "inputs": [
        {
          "internalType": "address",
          "name": "",
          "type": "address"
        }
      ],
      "name": "employees",
      "outputs": [
        {
          "internalType": "uint256",
          "name": "reputationScore",
          "type": "uint256"
        }
      ],
      "stateMutability": "view",
      "type": "function"
    },
    {
      "inputs": [],
      "name": "getAllEmployeeAddresses",
      "outputs": [
        {
          "internalType": "address[]",
          "name": "",
          "type": "address[]"
        }
      ],
      "stateMutability": "view",
      "type": "function"
    },
    {
      "inputs": [
        {
          "internalType": "address",
          "name": "user",
          "type": "address"
        }
      ],
      "name": "getCertificates",
      "outputs": [
        {
          "components": [
            {
              "internalType": "string",
              "name": "courseName",
              "type": "string"
            },
            {
              "internalType": "string",
              "name": "issueDate",
              "type": "string"
            },
            {
              "internalType": "string",
              "name": "issuer",
              "type": "string"
            },
            {
              "internalType": "bool",
              "name": "validated",
              "type": "bool"
            },
            {
              "internalType": "string",
              "name": "certType",
              "type": "string"
            },
            {
              "internalType": "string",
              "name": "ipfsHash",
              "type": "string"
            }
          ],
          "internalType": "struct Certification.Certificate[]",
          "name": "",
          "type": "tuple[]"
        }
      ],
      "stateMutability": "view",
      "type": "function"
    },
    {
      "inputs": [
        {
          "internalType": "address",
          "name": "user",
          "type": "address"
        }
      ],
      "name": "getReputationScore",
      "outputs": [
        {
          "internalType": "uint256",
          "name": "",
          "type": "uint256"
        }
      ],
      "stateMutability": "view",
      "type": "function"
    },
    {
      "inputs": [
        {
          "internalType": "string",
          "name": "courseName",
          "type": "string"
        },
        {
          "internalType": "string",
          "name": "issueDate",
          "type": "string"
        },
        {
          "internalType": "string",
          "name": "issuer",
          "type": "string"
        },
        {
          "internalType": "string",
          "name": "certType",
          "type": "string"
        },
        {
          "internalType": "string",
          "name": "ipfsHash",
          "type": "string"
        }
      ],
      "name": "submitCertificate",
      "outputs": [],
      "stateMutability": "nonpayable",
      "type": "function"
    },
    {
      "inputs": [
        {
          "internalType": "string",
          "name": "certType",
          "type": "string"
        },
        {
          "internalType": "uint256",
          "name": "score",
          "type": "uint256"
        }
      ],
      "name": "updateCertificateScore",
      "outputs": [],
      "stateMutability": "nonpayable",
      "type": "function"
    },
    {
      "inputs": [
        {
          "internalType": "address",
          "name": "user",
          "type": "address"
        },
        {
          "internalType": "uint256",
          "name": "index",
          "type": "uint256"
        }
      ],
      "name": "validateCertificate",
      "outputs": [],
      "stateMutability": "nonpayable",
      "type": "function"
    }
  ],
  "bytecode": "0x608060405234801561001057600080fd5b50600380546001600160a01b03191633179055604051600a9060029061004d9070426173696320436572746966696361746560781b815260110190565b908152604051908190036020018120919091557f496e7465726d65646961746520436572746966696361746500000000000000008152601490600290601801908152604051908190036020018120919091557f416476616e6365642043657274696669636174650000000000000000000000008152601e90600290601401908152604051908190036020018120919091557f50726f66657373696f6e616c2043657274696669636174650000000000000000815260329060029060180190815260405190819003602001902055611042806101296000396000f3fe608060405234801561001057600080fd5b506004361061009e5760003560e01c8063d067894711610066578063d067894714610163578063dc8cf05e14610183578063f01169cb14610196578063f1c49c62146101a9578063f851a440146101c957600080fd5b80631448ba90146100a357806329898f6e146100b85780633993af05146100d65780637521720b1461010f57806375a67d5c1461013a575b600080fd5b6100b66100b13660046109fc565b6101dc565b005b6100c06103b8565b6040516100cd9190610a26565b60405180910390f35b6101016100e4366004610b17565b805160208183018101805160028252928201919093012091525481565b6040519081526020016100cd565b61012261011d366004610b54565b61041a565b6040516001600160a01b0390911681526020016100cd565b610101610148366004610b6d565b6001600160a01b031660009081526020819052604090205490565b610101610171366004610b6d565b60006020819052908152604090205481565b6100b6610191366004610b8f565b610444565b6100b66101a4366004610c7b565b6105ed565b6101bc6101b7366004610b6d565b61067d565b6040516100cd9190610d10565b600354610122906001600160a01b031681565b6003546001600160a01b031633146102475760405162461bcd60e51b8152602060048201526024808201527f4f6e6c792061646d696e2063616e2076616c69646174652063657274696669636044820152636174657360e01b60648201526084015b60405180910390fd5b6001600160a01b03821660009081526020819052604090206001015481106102b15760405162461bcd60e51b815260206004820152601960248201527f496e76616c696420636572746966696361746520696e64657800000000000000604482015260640161023e565b6001600160a01b03821660009081526020819052604081206001018054839081106102de576102de610df6565b60009182526020909120600690910201600381015490915060ff16156103465760405162461bcd60e51b815260206004820181905260248201527f436572746966696361746520697320616c72656164792076616c696461746564604482015260640161023e565b60038101805460ff19166001179055604051600290610369906004840190610e46565b908152602001604051809103902054600080856001600160a01b03166001600160a01b0316815260200190815260200160002060000160008282546103ae9190610ebb565b9091555050505050565b6060600180548060200260200160405190810160405280929190818152602001828054801561041057602002820191906000526020600020905b81546001600160a01b031681526001909101906020018083116103f2575b5050505050905090565b6001818154811061042a57600080fd5b6000918252602090912001546001600160a01b0316905081565b60006002836040516104569190610ee2565b908152602001604051809103902054116104b25760405162461bcd60e51b815260206004820152601860248201527f496e76616c696420636572746966696361746520747970650000000000000000604482015260640161023e565b6040805160c08101825286815260208082018790528183018690526000606083018190526080830186905260a083018590523381528082529283206001908101805491820181558452922081519192839260069091029091019081906105189082610f4d565b506020820151600182019061052d9082610f4d565b50604082015160028201906105429082610f4d565b50606082015160038201805460ff19169115159190911790556080820151600482019061056f9082610f4d565b5060a082015160058201906105849082610f4d565b5050336000908152602081905260409020600190810154900390506105e5576001805480820182556000919091527fb10e2d527612073b26eecdfd717e6a320cf44b4afac2b0732d9fcbe2b7fa0cf60180546001600160a01b031916331790555b505050505050565b6003546001600160a01b031633146106585760405162461bcd60e51b815260206004820152602860248201527f4f6e6c792061646d696e2063616e207570646174652063657274696669636174604482015267652073636f72657360c01b606482015260840161023e565b806002836040516106699190610ee2565b908152604051908190036020019020555050565b6001600160a01b038116600090815260208181526040808320600101805482518185028101850190935280835260609492939192909184015b828210156109d557838290600052602060002090600602016040518060c00160405290816000820180546106e990610e0c565b80601f016020809104026020016040519081016040528092919081815260200182805461071590610e0c565b80156107625780601f1061073757610100808354040283529160200191610762565b820191906000526020600020905b81548152906001019060200180831161074557829003601f168201915b5050505050815260200160018201805461077b90610e0c565b80601f01602080910402602001604051908101604052809291908181526020018280546107a790610e0c565b80156107f45780601f106107c9576101008083540402835291602001916107f4565b820191906000526020600020905b8154815290600101906020018083116107d757829003601f168201915b5050505050815260200160028201805461080d90610e0c565b80601f016020809104026020016040519081016040528092919081815260200182805461083990610e0c565b80156108865780601f1061085b57610100808354040283529160200191610886565b820191906000526020600020905b81548152906001019060200180831161086957829003601f168201915b5050509183525050600382015460ff16151560208201526004820180546040909201916108b290610e0c565b80601f01602080910402602001604051908101604052809291908181526020018280546108de90610e0c565b801561092b5780601f106109005761010080835404028352916020019161092b565b820191906000526020600020905b81548152906001019060200180831161090e57829003601f168201915b5050505050815260200160058201805461094490610e0c565b80601f016020809104026020016040519081016040528092919081815260200182805461097090610e0c565b80156109bd5780601f10610992576101008083540402835291602001916109bd565b820191906000526020600020905b8154815290600101906020018083116109a057829003601f168201915b505050505081525050815260200190600101906106b6565b505050509050919050565b80356001600160a01b03811681146109f757600080fd5b919050565b60008060408385031215610a0f57600080fd5b610a18836109e0565b946020939093013593505050565b602080825282518282018190526000918401906040840190835b81811015610a675783516001600160a01b0316835260209384019390920191600101610a40565b509095945050505050565b634e487b7160e01b600052604160045260246000fd5b600082601f830112610a9957600080fd5b813567ffffffffffffffff811115610ab357610ab3610a72565b604051601f8201601f19908116603f0116810167ffffffffffffffff81118282101715610ae257610ae2610a72565b604052818152838201602001851015610afa57600080fd5b816020850160208301376000918101602001919091529392505050565b600060208284031215610b2957600080fd5b813567ffffffffffffffff811115610b4057600080fd5b610b4c84828501610a88565b949350505050565b600060208284031215610b6657600080fd5b5035919050565b600060208284031215610b7f57600080fd5b610b88826109e0565b9392505050565b600080600080600060a08688031215610ba757600080fd5b853567ffffffffffffffff811115610bbe57600080fd5b610bca88828901610a88565b955050602086013567ffffffffffffffff811115610be757600080fd5b610bf388828901610a88565b945050604086013567ffffffffffffffff811115610c1057600080fd5b610c1c88828901610a88565b935050606086013567ffffffffffffffff811115610c3957600080fd5b610c4588828901610a88565b925050608086013567ffffffffffffffff811115610c6257600080fd5b610c6e88828901610a88565b9150509295509295909350565b60008060408385031215610c8e57600080fd5b823567ffffffffffffffff811115610ca557600080fd5b610cb185828601610a88565b95602094909401359450505050565b60005b83811015610cdb578181015183820152602001610cc3565b50506000910152565b60008151808452610cfc816020860160208601610cc0565b601f01601f19169290920160200192915050565b6000602082016020835280845180835260408501915060408160051b86010192506020860160005b82811015610dea57603f198786030184528151805160c08752610d5e60c0880182610ce4565b905060208201518782036020890152610d778282610ce4565b91505060408201518782036040890152610d918282610ce4565b91505060608201511515606088015260808201518782036080890152610db78282610ce4565b91505060a0820151915086810360a0880152610dd38183610ce4565b965050506020938401939190910190600101610d38565b50929695505050505050565b634e487b7160e01b600052603260045260246000fd5b600181811c90821680610e2057607f821691505b602082108103610e4057634e487b7160e01b600052602260045260246000fd5b50919050565b6000808354610e5481610e0c565b600182168015610e6b5760018114610e8057610eb0565b60ff1983168652811515820286019350610eb0565b86600052602060002060005b83811015610ea857815488820152600190910190602001610e8c565b505081860193505b509195945050505050565b80820180821115610edc57634e487b7160e01b600052601160045260246000fd5b92915050565b60008251610ef4818460208701610cc0565b9190910192915050565b601f821115610f4857806000526020600020601f840160051c81016020851015610f255750805b601f840160051c820191505b81811015610f455760008155600101610f31565b50505b505050565b815167ffffffffffffffff811115610f6757610f67610a72565b610f7b81610f758454610e0c565b84610efe565b6020601f821160018114610faf5760008315610f975750848201515b600019600385901b1c1916600184901b178455610f45565b600084815260208120601f198516915b82811015610fdf5787850151825560209485019460019092019101610fbf565b5084821015610ffd5786840151600019600387901b60f8161c191681555b50505050600190811b0190555056fea26469706673582212203050b7be8dd92457f6aa2fe8f0cca0cb3eba816648a956a8d0ed549a4f4c4bbd64736f6c634300081b0033",
  "linkReferences": {},
  "deployedLinkReferences": {}
}