{
  "_format": "hh-sol-artifact-1",
  "contractName": "About",
  "sourceName": "contracts/About.sol",
  "abi": [
    {
      "inputs": [
        {
          "internalType": "address",
          "name": "_user",
          "type": "address"
        }
      ],
      "name": "getProfile",
      "outputs": [
        {
          "components": [
            {
              "internalType": "string",
              "name": "name",
              "type": "string"
            },
            {
              "internalType": "string",
              "name": "location",
              "type": "string"
            },
            {
              "internalType": "string",
              "name": "phoneNumber",
              "type": "string"
            },
            {
              "internalType": "string",
              "name": "emailAddress",
              "type": "string"
            },
            {
              "internalType": "string",
              "name": "personalSummary",
              "type": "string"
            }
          ],
          "internalType": "struct About.UserProfile",
          "name": "",
          "type": "tuple"
        }
      ],
      "stateMutability": "view",
      "type": "function"
    },
    {
      "inputs": [
        {
          "internalType": "string",
          "name": "_name",
          "type": "string"
        },
        {
          "internalType": "string",
          "name": "_location",
          "type": "string"
        },
        {
          "internalType": "string",
          "name": "_phoneNumber",
          "type": "string"
        },
        {
          "internalType": "string",
          "name": "_emailAddress",
          "type": "string"
        },
        {
          "internalType": "string",
          "name": "_personalSummary",
          "type": "string"
        }
      ],
      "name": "setProfile",
      "outputs": [],
      "stateMutability": "nonpayable",
      "type": "function"
    }
  ],
  "bytecode": "0x6080604052348015600f57600080fd5b506108728061001f6000396000f3fe608060405234801561001057600080fd5b50600436106100365760003560e01c80630f53a4701461003b578063614cffab14610064575b600080fd5b61004e610049366004610451565b610079565b60405161005b91906104c7565b60405180910390f35b610077610072366004610608565b6103ae565b005b6100ab6040518060a0016040528060608152602001606081526020016060815260200160608152602001606081525090565b6001600160a01b03821660009081526020819052604090819020815160a081019092528054829082906100dd906106f4565b80601f0160208091040260200160405190810160405280929190818152602001828054610109906106f4565b80156101565780601f1061012b57610100808354040283529160200191610156565b820191906000526020600020905b81548152906001019060200180831161013957829003601f168201915b5050505050815260200160018201805461016f906106f4565b80601f016020809104026020016040519081016040528092919081815260200182805461019b906106f4565b80156101e85780601f106101bd576101008083540402835291602001916101e8565b820191906000526020600020905b8154815290600101906020018083116101cb57829003601f168201915b50505050508152602001600282018054610201906106f4565b80601f016020809104026020016040519081016040528092919081815260200182805461022d906106f4565b801561027a5780601f1061024f5761010080835404028352916020019161027a565b820191906000526020600020905b81548152906001019060200180831161025d57829003601f168201915b50505050508152602001600382018054610293906106f4565b80601f01602080910402602001604051908101604052809291908181526020018280546102bf906106f4565b801561030c5780601f106102e15761010080835404028352916020019161030c565b820191906000526020600020905b8154815290600101906020018083116102ef57829003601f168201915b50505050508152602001600482018054610325906106f4565b80601f0160208091040260200160405190810160405280929190818152602001828054610351906106f4565b801561039e5780601f106103735761010080835404028352916020019161039e565b820191906000526020600020905b81548152906001019060200180831161038157829003601f168201915b5050505050815250509050919050565b6040805160a081018252868152602080820187905281830186905260608201859052608082018490523360009081529081905291909120815181906103f3908261077d565b5060208201516001820190610408908261077d565b506040820151600282019061041d908261077d565b5060608201516003820190610432908261077d565b5060808201516004820190610447908261077d565b5050505050505050565b60006020828403121561046357600080fd5b81356001600160a01b038116811461047a57600080fd5b9392505050565b6000815180845260005b818110156104a75760208185018101518683018201520161048b565b506000602082860101526020601f19601f83011685010191505092915050565b602081526000825160a060208401526104e360c0840182610481565b90506020840151601f198483030160408501526105008282610481565b9150506040840151601f1984830301606085015261051e8282610481565b9150506060840151601f1984830301608085015261053c8282610481565b9150506080840151601f198483030160a085015261055a8282610481565b95945050505050565b634e487b7160e01b600052604160045260246000fd5b600082601f83011261058a57600080fd5b813567ffffffffffffffff8111156105a4576105a4610563565b604051601f8201601f19908116603f0116810167ffffffffffffffff811182821017156105d3576105d3610563565b6040528181528382016020018510156105eb57600080fd5b816020850160208301376000918101602001919091529392505050565b600080600080600060a0868803121561062057600080fd5b853567ffffffffffffffff81111561063757600080fd5b61064388828901610579565b955050602086013567ffffffffffffffff81111561066057600080fd5b61066c88828901610579565b945050604086013567ffffffffffffffff81111561068957600080fd5b61069588828901610579565b935050606086013567ffffffffffffffff8111156106b257600080fd5b6106be88828901610579565b925050608086013567ffffffffffffffff8111156106db57600080fd5b6106e788828901610579565b9150509295509295909350565b600181811c9082168061070857607f821691505b60208210810361072857634e487b7160e01b600052602260045260246000fd5b50919050565b601f82111561077857806000526020600020601f840160051c810160208510156107555750805b601f840160051c820191505b818110156107755760008155600101610761565b50505b505050565b815167ffffffffffffffff81111561079757610797610563565b6107ab816107a584546106f4565b8461072e565b6020601f8211600181146107df57600083156107c75750848201515b600019600385901b1c1916600184901b178455610775565b600084815260208120601f198516915b8281101561080f57878501518255602094850194600190920191016107ef565b508482101561082d5786840151600019600387901b60f8161c191681555b50505050600190811b0190555056fea2646970667358221220216695da1e8e366418e2fa006b5e840c2af2de64287dfb0ba2df8e53e3d3409f64736f6c634300081b0033",
  "linkReferences": {},
  "deployedLinkReferences": {}
}